{
  "_format": "hh-sol-artifact-1",
  "contractName": "FundManager",
  "sourceName": "contracts/FundManager.sol",
  "abi": [
    {
      "inputs": [
        {
          "internalType": "address",
          "name": "_receiver",
          "type": "address"
        }
      ],
      "name": "depositFunds",
      "outputs": [],
      "stateMutability": "payable",
      "type": "function"
    },
    {
      "inputs": [
        {
          "internalType": "address",
          "name": "",
          "type": "address"
        }
      ],
      "name": "deposits",
      "outputs": [
        {
          "internalType": "address",
          "name": "receiver",
          "type": "address"
        },
        {
          "internalType": "uint256",
          "name": "amount",
          "type": "uint256"
        }
      ],
      "stateMutability": "view",
      "type": "function"
    },
    {
      "inputs": [
        {
          "internalType": "address",
          "name": "_sender",
          "type": "address"
        }
      ],
      "name": "getDepositDetails",
      "outputs": [
        {
          "internalType": "address",
          "name": "receiver",
          "type": "address"
        },
        {
          "internalType": "uint256",
          "name": "amount",
          "type": "uint256"
        }
      ],
      "stateMutability": "view",
      "type": "function"
    },
    {
      "inputs": [
        {
          "internalType": "address",
          "name": "_receiver",
          "type": "address"
        },
        {
          "internalType": "uint256",
          "name": "_amount",
          "type": "uint256"
        },
        {
          "internalType": "uint256",
          "name": "_percent",
          "type": "uint256"
        }
      ],
      "name": "refundToSender",
      "outputs": [],
      "stateMutability": "nonpayable",
      "type": "function"
    },
    {
      "inputs": [
        {
          "internalType": "address",
          "name": "_receiver",
          "type": "address"
        },
        {
          "internalType": "uint256",
          "name": "_amount",
          "type": "uint256"
        }
      ],
      "name": "sendToSpecificAddress",
      "outputs": [],
      "stateMutability": "nonpayable",
      "type": "function"
    }
  ],
  "bytecode": "0x608060405234801561001057600080fd5b5061117b806100206000396000f3fe60806040526004361061004a5760003560e01c8063083293371461004f57806320053d4a1461007857806352608f7f146100a1578063919747fb146100df578063fc7e286d146100fb575b600080fd5b34801561005b57600080fd5b50610076600480360381019061007191906109a6565b610139565b005b34801561008457600080fd5b5061009f600480360381019061009a91906109e6565b610368565b005b3480156100ad57600080fd5b506100c860048036038101906100c39190610a39565b610670565b6040516100d6929190610a84565b60405180910390f35b6100f960048036038101906100f49190610a39565b6106e9565b005b34801561010757600080fd5b50610122600480360381019061011d9190610a39565b6108c9565b604051610130929190610a84565b60405180910390f35b60008060003373ffffffffffffffffffffffffffffffffffffffff1673ffffffffffffffffffffffffffffffffffffffff168152602001908152602001600020905060008160010154116101c2576040517f08c379a00000000000000000000000000000000000000000000000000000000081526004016101b990610b0a565b60405180910390fd5b8060000160009054906101000a900473ffffffffffffffffffffffffffffffffffffffff1673ffffffffffffffffffffffffffffffffffffffff168373ffffffffffffffffffffffffffffffffffffffff1614610254576040517f08c379a000000000000000000000000000000000000000000000000000000000815260040161024b90610b76565b60405180910390fd5b806001015482111561029b576040517f08c379a000000000000000000000000000000000000000000000000000000000815260040161029290610be2565b60405180910390fd5b818160010160008282546102af9190610c31565b9250508190555060008373ffffffffffffffffffffffffffffffffffffffff16836040516102dc90610c96565b60006040518083038185875af1925050503d8060008114610319576040519150601f19603f3d011682016040523d82523d6000602084013e61031e565b606091505b5050905080610362576040517f08c379a000000000000000000000000000000000000000000000000000000000815260040161035990610cf7565b60405180910390fd5b50505050565b60008060003373ffffffffffffffffffffffffffffffffffffffff1673ffffffffffffffffffffffffffffffffffffffff168152602001908152602001600020905082816001015410156103f1576040517f08c379a00000000000000000000000000000000000000000000000000000000081526004016103e890610d89565b60405180910390fd5b6064821115610435576040517f08c379a000000000000000000000000000000000000000000000000000000000815260040161042c90610e1b565b60405180910390fd5b8373ffffffffffffffffffffffffffffffffffffffff168160000160009054906101000a900473ffffffffffffffffffffffffffffffffffffffff1673ffffffffffffffffffffffffffffffffffffffff16146104c7576040517f08c379a00000000000000000000000000000000000000000000000000000000081526004016104be90610b76565b60405180910390fd5b6000606483856104d79190610e3b565b6104e19190610eac565b9050600081856104f19190610c31565b9050848360010160008282546105079190610c31565b9250508190555060008673ffffffffffffffffffffffffffffffffffffffff168360405161053490610c96565b60006040518083038185875af1925050503d8060008114610571576040519150601f19603f3d011682016040523d82523d6000602084013e610576565b606091505b50509050806105ba576040517f08c379a00000000000000000000000000000000000000000000000000000000081526004016105b190610f4f565b60405180910390fd5b60003373ffffffffffffffffffffffffffffffffffffffff16836040516105e090610c96565b60006040518083038185875af1925050503d806000811461061d576040519150601f19603f3d011682016040523d82523d6000602084013e610622565b606091505b5050905080610666576040517f08c379a000000000000000000000000000000000000000000000000000000000815260040161065d90610fbb565b60405180910390fd5b5050505050505050565b60008060008060008573ffffffffffffffffffffffffffffffffffffffff1673ffffffffffffffffffffffffffffffffffffffff16815260200190815260200160002090508060000160009054906101000a900473ffffffffffffffffffffffffffffffffffffffff1681600101549250925050915091565b6000341161072c576040517f08c379a000000000000000000000000000000000000000000000000000000000815260040161072390611027565b60405180910390fd5b600073ffffffffffffffffffffffffffffffffffffffff168173ffffffffffffffffffffffffffffffffffffffff160361079b576040517f08c379a000000000000000000000000000000000000000000000000000000000815260040161079290611093565b60405180910390fd5b3373ffffffffffffffffffffffffffffffffffffffff168173ffffffffffffffffffffffffffffffffffffffff1603610809576040517f08c379a000000000000000000000000000000000000000000000000000000000815260040161080090611125565b60405180910390fd5b60405180604001604052808273ffffffffffffffffffffffffffffffffffffffff168152602001348152506000803373ffffffffffffffffffffffffffffffffffffffff1673ffffffffffffffffffffffffffffffffffffffff16815260200190815260200160002060008201518160000160006101000a81548173ffffffffffffffffffffffffffffffffffffffff021916908373ffffffffffffffffffffffffffffffffffffffff1602179055506020820151816001015590505050565b60006020528060005260406000206000915090508060000160009054906101000a900473ffffffffffffffffffffffffffffffffffffffff16908060010154905082565b600080fd5b600073ffffffffffffffffffffffffffffffffffffffff82169050919050565b600061093d82610912565b9050919050565b61094d81610932565b811461095857600080fd5b50565b60008135905061096a81610944565b92915050565b6000819050919050565b61098381610970565b811461098e57600080fd5b50565b6000813590506109a08161097a565b92915050565b600080604083850312156109bd576109bc61090d565b5b60006109cb8582860161095b565b92505060206109dc85828601610991565b9150509250929050565b6000806000606084860312156109ff576109fe61090d565b5b6000610a0d8682870161095b565b9350506020610a1e86828701610991565b9250506040610a2f86828701610991565b9150509250925092565b600060208284031215610a4f57610a4e61090d565b5b6000610a5d8482850161095b565b91505092915050565b610a6f81610932565b82525050565b610a7e81610970565b82525050565b6000604082019050610a996000830185610a66565b610aa66020830184610a75565b9392505050565b600082825260208201905092915050565b7f4e6f2066756e647320746f2073656e642e000000000000000000000000000000600082015250565b6000610af4601183610aad565b9150610aff82610abe565b602082019050919050565b60006020820190508181036000830152610b2381610ae7565b9050919050565b7f52656365697665722061646472657373206d69736d617463682e000000000000600082015250565b6000610b60601a83610aad565b9150610b6b82610b2a565b602082019050919050565b60006020820190508181036000830152610b8f81610b53565b9050919050565b7f496e73756666696369656e742066756e647320746f2073656e642e0000000000600082015250565b6000610bcc601b83610aad565b9150610bd782610b96565b602082019050919050565b60006020820190508181036000830152610bfb81610bbf565b9050919050565b7f4e487b7100000000000000000000000000000000000000000000000000000000600052601160045260246000fd5b6000610c3c82610970565b9150610c4783610970565b9250828203905081811115610c5f57610c5e610c02565b5b92915050565b600081905092915050565b50565b6000610c80600083610c65565b9150610c8b82610c70565b600082019050919050565b6000610ca182610c73565b9150819050919050565b7f4661696c656420746f2073656e642045746865722e0000000000000000000000600082015250565b6000610ce1601583610aad565b9150610cec82610cab565b602082019050919050565b60006020820190508181036000830152610d1081610cd4565b9050919050565b7f53746f72656420616d6f756e74206973206c657373207468616e20746865207360008201527f706563696669656420616d6f756e742e00000000000000000000000000000000602082015250565b6000610d73603083610aad565b9150610d7e82610d17565b604082019050919050565b60006020820190508181036000830152610da281610d66565b9050919050565b7f50657263656e746167652063616e6e6f74206265206d6f7265207468616e203160008201527f30302e0000000000000000000000000000000000000000000000000000000000602082015250565b6000610e05602383610aad565b9150610e1082610da9565b604082019050919050565b60006020820190508181036000830152610e3481610df8565b9050919050565b6000610e4682610970565b9150610e5183610970565b9250828202610e5f81610970565b91508282048414831517610e7657610e75610c02565b5b5092915050565b7f4e487b7100000000000000000000000000000000000000000000000000000000600052601260045260246000fd5b6000610eb782610970565b9150610ec283610970565b925082610ed257610ed1610e7d565b5b828204905092915050565b7f4661696c656420746f2073656e6420457468657220746f20726563656976657260008201527f2e00000000000000000000000000000000000000000000000000000000000000602082015250565b6000610f39602183610aad565b9150610f4482610edd565b604082019050919050565b60006020820190508181036000830152610f6881610f2c565b9050919050565b7f526566756e6420746f2073656e646572206661696c65642e0000000000000000600082015250565b6000610fa5601883610aad565b9150610fb082610f6f565b602082019050919050565b60006020820190508181036000830152610fd481610f98565b9050919050565b7f596f75206e65656420746f206465706f73697420736f6d652045746865722e00600082015250565b6000611011601f83610aad565b915061101c82610fdb565b602082019050919050565b6000602082019050818103600083015261104081611004565b9050919050565b7f526563656976657220616464726573732063616e6e6f74206265207a65726f2e600082015250565b600061107d602083610aad565b915061108882611047565b602082019050919050565b600060208201905081810360008301526110ac81611070565b9050919050565b7f526563656976657220616464726573732063616e6e6f7420626520746865207360008201527f616d652061732073656e6465722e000000000000000000000000000000000000602082015250565b600061110f602e83610aad565b915061111a826110b3565b604082019050919050565b6000602082019050818103600083015261113e81611102565b905091905056fea2646970667358221220c95511116b31344fa91da4d459cff13fb0da75fcbc328db6637dd53531bb7ffe64736f6c63430008180033",
  "linkReferences": {},
  "deployedLinkReferences": {}
}